{
  "contractName": "Authentifi",
  "abi": [
    {
      "inputs": [],
      "stateMutability": "nonpayable",
      "type": "constructor"
    },
    {
      "anonymous": false,
      "inputs": [
        {
          "indexed": false,
          "internalType": "string",
          "name": "hashedEmail",
          "type": "string"
        },
        {
          "indexed": false,
          "internalType": "string",
          "name": "name",
          "type": "string"
        },
        {
          "indexed": false,
          "internalType": "string",
          "name": "phone",
          "type": "string"
        }
      ],
      "name": "LogisticCreated",
      "type": "event"
    },
    {
      "anonymous": false,
      "inputs": [
        {
          "indexed": false,
          "internalType": "string",
          "name": "code",
          "type": "string"
        },
        {
          "indexed": false,
          "internalType": "string",
          "name": "brand",
          "type": "string"
        },
        {
          "indexed": false,
          "internalType": "string",
          "name": "model",
          "type": "string"
        },
        {
          "indexed": false,
          "internalType": "enum Authentifi.Status",
          "name": "status",
          "type": "uint8"
        },
        {
          "indexed": false,
          "internalType": "string",
          "name": "description",
          "type": "string"
        },
        {
          "indexed": false,
          "internalType": "string",
          "name": "manufacturerName",
          "type": "string"
        },
        {
          "indexed": false,
          "internalType": "string",
          "name": "manufacturerLocation",
          "type": "string"
        },
        {
          "indexed": false,
          "internalType": "string",
          "name": "manufacturerTimestamp",
          "type": "string"
        }
      ],
      "name": "ProductCreated",
      "type": "event"
    },
    {
      "anonymous": false,
      "inputs": [
        {
          "indexed": false,
          "internalType": "string",
          "name": "code",
          "type": "string"
        },
        {
          "indexed": false,
          "internalType": "string",
          "name": "logistic",
          "type": "string"
        }
      ],
      "name": "ProductDelivered",
      "type": "event"
    },
    {
      "anonymous": false,
      "inputs": [
        {
          "indexed": false,
          "internalType": "string",
          "name": "code",
          "type": "string"
        },
        {
          "indexed": false,
          "internalType": "string",
          "name": "retailer",
          "type": "string"
        }
      ],
      "name": "ProductDeliveryConfirmed",
      "type": "event"
    },
    {
      "anonymous": false,
      "inputs": [
        {
          "indexed": false,
          "internalType": "string",
          "name": "code",
          "type": "string"
        },
        {
          "indexed": false,
          "internalType": "string",
          "name": "retailer",
          "type": "string"
        }
      ],
      "name": "ProductPickedForDelivery",
      "type": "event"
    },
    {
      "anonymous": false,
      "inputs": [
        {
          "indexed": false,
          "internalType": "string",
          "name": "code",
          "type": "string"
        },
        {
          "indexed": false,
          "internalType": "string",
          "name": "retailer",
          "type": "string"
        }
      ],
      "name": "ProductSold",
      "type": "event"
    },
    {
      "anonymous": false,
      "inputs": [
        {
          "indexed": false,
          "internalType": "string",
          "name": "hashedEmail",
          "type": "string"
        },
        {
          "indexed": false,
          "internalType": "string",
          "name": "retailerName",
          "type": "string"
        },
        {
          "indexed": false,
          "internalType": "string",
          "name": "retailerLocation",
          "type": "string"
        }
      ],
      "name": "RetailerCreated",
      "type": "event"
    },
    {
      "inputs": [],
      "name": "owner",
      "outputs": [
        {
          "internalType": "address",
          "name": "",
          "type": "address"
        }
      ],
      "stateMutability": "view",
      "type": "function",
      "constant": true
    },
    {
      "inputs": [
        {
          "internalType": "string",
          "name": "",
          "type": "string"
        }
      ],
      "name": "productArray",
      "outputs": [
        {
          "internalType": "enum Authentifi.Status",
          "name": "status",
          "type": "uint8"
        },
        {
          "internalType": "string",
          "name": "brand",
          "type": "string"
        },
        {
          "internalType": "string",
          "name": "itemCode",
          "type": "string"
        },
        {
          "internalType": "string",
          "name": "model",
          "type": "string"
        },
        {
          "internalType": "string",
          "name": "description",
          "type": "string"
        },
        {
          "internalType": "string",
          "name": "manufacturerName",
          "type": "string"
        },
        {
          "internalType": "string",
          "name": "manufacturerLocation",
          "type": "string"
        },
        {
          "internalType": "string",
          "name": "manufacturerTimestamp",
          "type": "string"
        },
        {
          "internalType": "string",
          "name": "retailer",
          "type": "string"
        },
        {
          "components": [
            {
              "internalType": "string",
              "name": "logistic",
              "type": "string"
            },
            {
              "internalType": "string",
              "name": "pickedOn",
              "type": "string"
            },
            {
              "internalType": "string",
              "name": "deliveredOn",
              "type": "string"
            }
          ],
          "internalType": "struct Authentifi.DeliveryInfo",
          "name": "deliveryInfo",
          "type": "tuple"
        }
      ],
      "stateMutability": "view",
      "type": "function",
      "constant": true
    },
    {
      "inputs": [],
      "name": "listCodes",
      "outputs": [
        {
          "components": [
            {
              "internalType": "enum Authentifi.Status",
              "name": "status",
              "type": "uint8"
            },
            {
              "internalType": "string",
              "name": "brand",
              "type": "string"
            },
            {
              "internalType": "string",
              "name": "itemCode",
              "type": "string"
            },
            {
              "internalType": "string",
              "name": "model",
              "type": "string"
            },
            {
              "internalType": "string",
              "name": "description",
              "type": "string"
            },
            {
              "internalType": "string",
              "name": "manufacturerName",
              "type": "string"
            },
            {
              "internalType": "string",
              "name": "manufacturerLocation",
              "type": "string"
            },
            {
              "internalType": "string",
              "name": "manufacturerTimestamp",
              "type": "string"
            },
            {
              "internalType": "string",
              "name": "retailer",
              "type": "string"
            },
            {
              "components": [
                {
                  "internalType": "string",
                  "name": "logistic",
                  "type": "string"
                },
                {
                  "internalType": "string",
                  "name": "pickedOn",
                  "type": "string"
                },
                {
                  "internalType": "string",
                  "name": "deliveredOn",
                  "type": "string"
                }
              ],
              "internalType": "struct Authentifi.DeliveryInfo",
              "name": "deliveryInfo",
              "type": "tuple"
            },
            {
              "internalType": "string[]",
              "name": "customers",
              "type": "string[]"
            }
          ],
          "internalType": "struct Authentifi.Product[]",
          "name": "",
          "type": "tuple[]"
        }
      ],
      "stateMutability": "view",
      "type": "function",
      "constant": true
    },
    {
      "inputs": [
        {
          "internalType": "string",
          "name": "_code",
          "type": "string"
        },
        {
          "internalType": "string",
          "name": "_brand",
          "type": "string"
        },
        {
          "internalType": "string",
          "name": "_model",
          "type": "string"
        },
        {
          "internalType": "string",
          "name": "_description",
          "type": "string"
        },
        {
          "internalType": "string",
          "name": "_manufacturerName",
          "type": "string"
        },
        {
          "internalType": "string",
          "name": "_manufacturerLocation",
          "type": "string"
        },
        {
          "internalType": "string",
          "name": "_manufacturerTimestamp",
          "type": "string"
        }
      ],
      "name": "createProduct",
      "outputs": [
        {
          "internalType": "uint256",
          "name": "",
          "type": "uint256"
        }
      ],
      "stateMutability": "nonpayable",
      "type": "function"
    },
    {
      "inputs": [
        {
          "internalType": "string",
          "name": "_code",
          "type": "string"
        }
      ],
      "name": "getProductDetails",
      "outputs": [
        {
          "components": [
            {
              "internalType": "enum Authentifi.Status",
              "name": "status",
              "type": "uint8"
            },
            {
              "internalType": "string",
              "name": "brand",
              "type": "string"
            },
            {
              "internalType": "string",
              "name": "itemCode",
              "type": "string"
            },
            {
              "internalType": "string",
              "name": "model",
              "type": "string"
            },
            {
              "internalType": "string",
              "name": "description",
              "type": "string"
            },
            {
              "internalType": "string",
              "name": "manufacturerName",
              "type": "string"
            },
            {
              "internalType": "string",
              "name": "manufacturerLocation",
              "type": "string"
            },
            {
              "internalType": "string",
              "name": "manufacturerTimestamp",
              "type": "string"
            },
            {
              "internalType": "string",
              "name": "retailer",
              "type": "string"
            },
            {
              "components": [
                {
                  "internalType": "string",
                  "name": "logistic",
                  "type": "string"
                },
                {
                  "internalType": "string",
                  "name": "pickedOn",
                  "type": "string"
                },
                {
                  "internalType": "string",
                  "name": "deliveredOn",
                  "type": "string"
                }
              ],
              "internalType": "struct Authentifi.DeliveryInfo",
              "name": "deliveryInfo",
              "type": "tuple"
            },
            {
              "internalType": "string[]",
              "name": "customers",
              "type": "string[]"
            }
          ],
          "internalType": "struct Authentifi.Product",
          "name": "",
          "type": "tuple"
        }
      ],
      "stateMutability": "view",
      "type": "function",
      "constant": true
    },
    {
      "inputs": [
        {
          "internalType": "string",
          "name": "_code",
          "type": "string"
        }
      ],
      "name": "getProductRetailerDetails",
      "outputs": [
        {
          "internalType": "string",
          "name": "",
          "type": "string"
        },
        {
          "internalType": "string",
          "name": "",
          "type": "string"
        }
      ],
      "stateMutability": "view",
      "type": "function",
      "constant": true
    },
    {
      "inputs": [
        {
          "internalType": "string",
          "name": "_code",
          "type": "string"
        },
        {
          "internalType": "string",
          "name": "_hashedEmailRetailer",
          "type": "string"
        }
      ],
      "name": "sellProduct",
      "outputs": [
        {
          "internalType": "uint256",
          "name": "",
          "type": "uint256"
        }
      ],
      "stateMutability": "nonpayable",
      "type": "function"
    },
    {
      "inputs": [
        {
          "internalType": "string",
          "name": "_hashedEmail",
          "type": "string"
        },
        {
          "internalType": "string",
          "name": "_name",
          "type": "string"
        },
        {
          "internalType": "string",
          "name": "_location",
          "type": "string"
        }
      ],
      "name": "createLogistic",
      "outputs": [
        {
          "internalType": "bool",
          "name": "",
          "type": "bool"
        }
      ],
      "stateMutability": "nonpayable",
      "type": "function"
    },
    {
      "inputs": [
        {
          "internalType": "string",
          "name": "_hashedEmail",
          "type": "string"
        }
      ],
      "name": "getLogisticDetails",
      "outputs": [
        {
          "internalType": "string",
          "name": "",
          "type": "string"
        },
        {
          "internalType": "string",
          "name": "",
          "type": "string"
        }
      ],
      "stateMutability": "view",
      "type": "function",
      "constant": true
    },
    {
      "inputs": [
        {
          "internalType": "string",
          "name": "_hashedEmail",
          "type": "string"
        },
        {
          "internalType": "string",
          "name": "_retailerName",
          "type": "string"
        },
        {
          "internalType": "string",
          "name": "_retailerLocation",
          "type": "string"
        }
      ],
      "name": "createRetailer",
      "outputs": [
        {
          "internalType": "uint256",
          "name": "",
          "type": "uint256"
        }
      ],
      "stateMutability": "nonpayable",
      "type": "function"
    },
    {
      "inputs": [
        {
          "internalType": "string",
          "name": "_retailer",
          "type": "string"
        }
      ],
      "name": "getRetailerProductCodes",
      "outputs": [
        {
          "internalType": "string[]",
          "name": "",
          "type": "string[]"
        }
      ],
      "stateMutability": "view",
      "type": "function",
      "constant": true
    },
    {
      "inputs": [
        {
          "internalType": "string",
          "name": "_code",
          "type": "string"
        },
        {
          "internalType": "string",
          "name": "_retailer",
          "type": "string"
        },
        {
          "internalType": "string",
          "name": "_timestamp",
          "type": "string"
        }
      ],
      "name": "confirmProductDelivery",
      "outputs": [
        {
          "internalType": "bool",
          "name": "",
          "type": "bool"
        }
      ],
      "stateMutability": "payable",
      "type": "function",
      "payable": true
    },
    {
      "inputs": [
        {
          "internalType": "string",
          "name": "_hashedEmail",
          "type": "string"
        }
      ],
      "name": "getRetailerDetails",
      "outputs": [
        {
          "internalType": "string",
          "name": "",
          "type": "string"
        },
        {
          "internalType": "string",
          "name": "",
          "type": "string"
        }
      ],
      "stateMutability": "view",
      "type": "function",
      "constant": true
    },
    {
      "inputs": [
        {
          "internalType": "string",
          "name": "_code",
          "type": "string"
        },
        {
          "internalType": "string",
          "name": "_logistic",
          "type": "string"
        },
        {
          "internalType": "string",
          "name": "_pickedTimestamp",
          "type": "string"
        }
      ],
      "name": "pickProductForDelivery",
      "outputs": [
        {
          "internalType": "bool",
          "name": "",
          "type": "bool"
        }
      ],
      "stateMutability": "payable",
      "type": "function",
      "payable": true
    },
    {
      "inputs": [
        {
          "internalType": "string",
          "name": "_logistic",
          "type": "string"
        }
      ],
      "name": "getDeliveriesCode",
      "outputs": [
        {
          "internalType": "string[]",
          "name": "",
          "type": "string[]"
        }
      ],
      "stateMutability": "view",
      "type": "function",
      "constant": true
    },
    {
      "inputs": [
        {
          "internalType": "string",
          "name": "_code",
          "type": "string"
        },
        {
          "internalType": "string",
          "name": "_logistic",
          "type": "string"
        }
      ],
      "name": "markProductAsDelivered",
      "outputs": [
        {
          "internalType": "bool",
          "name": "",
          "type": "bool"
        }
      ],
      "stateMutability": "payable",
      "type": "function",
      "payable": true
    }
  ],
  "bytecode": "0x60806040523480156200001157600080fd5b50336000806101000a81548173ffffffffffffffffffffffffffffffffffffffff021916908373ffffffffffffffffffffffffffffffffffffffff160217905550600073ffffffffffffffffffffffffffffffffffffffff1660008054906101000a900473ffffffffffffffffffffffffffffffffffffffff1673ffffffffffffffffffffffffffffffffffffffff1603620000b257620000b1620000b8565b5b620000e7565b7f4e487b7100000000000000000000000000000000000000000000000000000000600052600160045260246000fd5b6159a280620000f76000396000f3fe6080604052600436106100f35760003560e01c8063ae5f12db1161008a578063c366906311610059578063c3669063146103a0578063ea788dd1146103de578063efd13dc01461041c578063fee767d31461044c576100f3565b8063ae5f12db146102d8578063b5bd438b14610308578063b72bedf414610345578063c04056d914610375576100f3565b806350bff2ba116100c657806350bff2ba146101f5578063570ab6d91461023357806366223e51146102705780638da5cb5b146102ad576100f3565b806304f832ba146100f85780630a6b3ad314610135578063198c59b01461017b57806348364e2f146101b8575b600080fd5b34801561010457600080fd5b5061011f600480360381019061011a91906143f2565b610489565b60405161012c91906144b4565b60405180910390f35b34801561014157600080fd5b5061015c600480360381019061015791906144cf565b610694565b6040516101729a999897969594939291906146bf565b60405180910390f35b34801561018757600080fd5b506101a2600480360381019061019d91906144cf565b610d0b565b6040516101af91906149f7565b60405180910390f35b3480156101c457600080fd5b506101df60048036038101906101da91906144cf565b611500565b6040516101ec9190614a9f565b60405180910390f35b34801561020157600080fd5b5061021c600480360381019061021791906144cf565b611658565b60405161022a929190614ac1565b60405180910390f35b34801561023f57600080fd5b5061025a600480360381019061025591906144cf565b6118f8565b6040516102679190614a9f565b60405180910390f35b34801561027c57600080fd5b5061029760048036038101906102929190614af8565b611a50565b6040516102a49190614b89565b60405180910390f35b3480156102b957600080fd5b506102c2611ca1565b6040516102cf9190614be5565b60405180910390f35b6102f260048036038101906102ed91906143f2565b611cc5565b6040516102ff91906144b4565b60405180910390f35b34801561031457600080fd5b5061032f600480360381019061032a91906143f2565b611ee0565b60405161033c9190614b89565b60405180910390f35b61035f600480360381019061035a91906143f2565b6120f4565b60405161036c91906144b4565b60405180910390f35b34801561038157600080fd5b5061038a61237f565b6040516103979190614df0565b60405180910390f35b3480156103ac57600080fd5b506103c760048036038101906103c291906144cf565b612bdc565b6040516103d5929190614ac1565b60405180910390f35b3480156103ea57600080fd5b50610405600480360381019061040091906144cf565b613747565b604051610413929190614ac1565b60405180910390f35b61043660048036038101906104319190614af8565b613b0b565b60405161044391906144b4565b60405180910390f35b34801561045857600080fd5b50610473600480360381019061046e9190614e12565b613ce5565b6040516104809190614b89565b60405180910390f35b60008060009054906101000a900473ffffffffffffffffffffffffffffffffffffffff1673ffffffffffffffffffffffffffffffffffffffff163373ffffffffffffffffffffffffffffffffffffffff161461051a576040517f08c379a000000000000000000000000000000000000000000000000000000000815260040161051190614fc4565b60405180910390fd5b60038460405161052a9190615020565b908152602001604051809103902060020160009054906101000a900460ff1615610589576040517f08c379a000000000000000000000000000000000000000000000000000000000815260040161058090615083565b60405180910390fd5b61059161403c565b8381600001819052508281602001819052506001816040019015159081151581525050806003866040516105c59190615020565b908152602001604051809103902060008201518160000190805190602001906105ef929190614066565b50602082015181600101908051906020019061060c929190614066565b5060408201518160020160006101000a81548160ff02191690831515021790555060608201518160030190805190602001906106499291906140ec565b509050507f2490eb5d7a6beb2f3a430d2e2175dd33be50926e758ab98a6d0ce2b342760642858585604051610680939291906150a3565b60405180910390a160019150509392505050565b6002818051602081018201805184825260208301602085012081835280955050505050506000915090508060000160009054906101000a900460ff16908060010180546106e09061511e565b80601f016020809104026020016040519081016040528092919081815260200182805461070c9061511e565b80156107595780601f1061072e57610100808354040283529160200191610759565b820191906000526020600020905b81548152906001019060200180831161073c57829003601f168201915b50505050509080600201805461076e9061511e565b80601f016020809104026020016040519081016040528092919081815260200182805461079a9061511e565b80156107e75780601f106107bc576101008083540402835291602001916107e7565b820191906000526020600020905b8154815290600101906020018083116107ca57829003601f168201915b5050505050908060030180546107fc9061511e565b80601f01602080910402602001604051908101604052809291908181526020018280546108289061511e565b80156108755780601f1061084a57610100808354040283529160200191610875565b820191906000526020600020905b81548152906001019060200180831161085857829003601f168201915b50505050509080600401805461088a9061511e565b80601f01602080910402602001604051908101604052809291908181526020018280546108b69061511e565b80156109035780601f106108d857610100808354040283529160200191610903565b820191906000526020600020905b8154815290600101906020018083116108e657829003601f168201915b5050505050908060050180546109189061511e565b80601f01602080910402602001604051908101604052809291908181526020018280546109449061511e565b80156109915780601f1061096657610100808354040283529160200191610991565b820191906000526020600020905b81548152906001019060200180831161097457829003601f168201915b5050505050908060060180546109a69061511e565b80601f01602080910402602001604051908101604052809291908181526020018280546109d29061511e565b8015610a1f5780601f106109f457610100808354040283529160200191610a1f565b820191906000526020600020905b815481529060010190602001808311610a0257829003601f168201915b505050505090806007018054610a349061511e565b80601f0160208091040260200160405190810160405280929190818152602001828054610a609061511e565b8015610aad5780601f10610a8257610100808354040283529160200191610aad565b820191906000526020600020905b815481529060010190602001808311610a9057829003601f168201915b505050505090806008018054610ac29061511e565b80601f0160208091040260200160405190810160405280929190818152602001828054610aee9061511e565b8015610b3b5780601f10610b1057610100808354040283529160200191610b3b565b820191906000526020600020905b815481529060010190602001808311610b1e57829003601f168201915b50505050509080600901604051806060016040529081600082018054610b609061511e565b80601f0160208091040260200160405190810160405280929190818152602001828054610b8c9061511e565b8015610bd95780601f10610bae57610100808354040283529160200191610bd9565b820191906000526020600020905b815481529060010190602001808311610bbc57829003601f168201915b50505050508152602001600182018054610bf29061511e565b80601f0160208091040260200160405190810160405280929190818152602001828054610c1e9061511e565b8015610c6b5780601f10610c4057610100808354040283529160200191610c6b565b820191906000526020600020905b815481529060010190602001808311610c4e57829003601f168201915b50505050508152602001600282018054610c849061511e565b80601f0160208091040260200160405190810160405280929190818152602001828054610cb09061511e565b8015610cfd5780601f10610cd257610100808354040283529160200191610cfd565b820191906000526020600020905b815481529060010190602001808311610ce057829003601f168201915b50505050508152505090508a565b610d1361414c565b6000600283604051610d259190615020565b9081526020016040518091039020604051806101600160405290816000820160009054906101000a900460ff166004811115610d6457610d63614518565b5b6004811115610d7657610d75614518565b5b8152602001600182018054610d8a9061511e565b80601f0160208091040260200160405190810160405280929190818152602001828054610db69061511e565b8015610e035780601f10610dd857610100808354040283529160200191610e03565b820191906000526020600020905b815481529060010190602001808311610de657829003601f168201915b50505050508152602001600282018054610e1c9061511e565b80601f0160208091040260200160405190810160405280929190818152602001828054610e489061511e565b8015610e955780601f10610e6a57610100808354040283529160200191610e95565b820191906000526020600020905b815481529060010190602001808311610e7857829003601f168201915b50505050508152602001600382018054610eae9061511e565b80601f0160208091040260200160405190810160405280929190818152602001828054610eda9061511e565b8015610f275780601f10610efc57610100808354040283529160200191610f27565b820191906000526020600020905b815481529060010190602001808311610f0a57829003601f168201915b50505050508152602001600482018054610f409061511e565b80601f0160208091040260200160405190810160405280929190818152602001828054610f6c9061511e565b8015610fb95780601f10610f8e57610100808354040283529160200191610fb9565b820191906000526020600020905b815481529060010190602001808311610f9c57829003601f168201915b50505050508152602001600582018054610fd29061511e565b80601f0160208091040260200160405190810160405280929190818152602001828054610ffe9061511e565b801561104b5780601f106110205761010080835404028352916020019161104b565b820191906000526020600020905b81548152906001019060200180831161102e57829003601f168201915b505050505081526020016006820180546110649061511e565b80601f01602080910402602001604051908101604052809291908181526020018280546110909061511e565b80156110dd5780601f106110b2576101008083540402835291602001916110dd565b820191906000526020600020905b8154815290600101906020018083116110c057829003601f168201915b505050505081526020016007820180546110f69061511e565b80601f01602080910402602001604051908101604052809291908181526020018280546111229061511e565b801561116f5780601f106111445761010080835404028352916020019161116f565b820191906000526020600020905b81548152906001019060200180831161115257829003601f168201915b505050505081526020016008820180546111889061511e565b80601f01602080910402602001604051908101604052809291908181526020018280546111b49061511e565b80156112015780601f106111d657610100808354040283529160200191611201565b820191906000526020600020905b8154815290600101906020018083116111e457829003601f168201915b505050505081526020016009820160405180606001604052908160008201805461122a9061511e565b80601f01602080910402602001604051908101604052809291908181526020018280546112569061511e565b80156112a35780601f10611278576101008083540402835291602001916112a3565b820191906000526020600020905b81548152906001019060200180831161128657829003601f168201915b505050505081526020016001820180546112bc9061511e565b80601f01602080910402602001604051908101604052809291908181526020018280546112e89061511e565b80156113355780601f1061130a57610100808354040283529160200191611335565b820191906000526020600020905b81548152906001019060200180831161131857829003601f168201915b5050505050815260200160028201805461134e9061511e565b80601f016020809104026020016040519081016040528092919081815260200182805461137a9061511e565b80156113c75780601f1061139c576101008083540402835291602001916113c7565b820191906000526020600020905b8154815290600101906020018083116113aa57829003601f168201915b5050505050815250508152602001600c8201805480602002602001604051908101604052809291908181526020016000905b828210156114a55783829060005260206000200180546114189061511e565b80601f01602080910402602001604051908101604052809291908181526020018280546114449061511e565b80156114915780601f1061146657610100808354040283529160200191611491565b820191906000526020600020905b81548152906001019060200180831161147457829003601f168201915b5050505050815260200190600101906113f9565b505050508152505090506000816020015151036114f7576040517f08c379a00000000000000000000000000000000000000000000000000000000081526004016114ee9061519b565b60405180910390fd5b80915050919050565b606060006003836040516115149190615020565b90815260200160405180910390209050600115158160020160009054906101000a900460ff1615151461157c576040517f08c379a00000000000000000000000000000000000000000000000000000000081526004016115739061522d565b60405180910390fd5b80600301805480602002602001604051908101604052809291908181526020016000905b8282101561164c5783829060005260206000200180546115bf9061511e565b80601f01602080910402602001604051908101604052809291908181526020018280546115eb9061511e565b80156116385780601f1061160d57610100808354040283529160200191611638565b820191906000526020600020905b81548152906001019060200180831161161b57829003601f168201915b5050505050815260200190600101906115a0565b50505050915050919050565b606080600060038460405161166d9190615020565b90815260200160405180910390206040518060800160405290816000820180546116969061511e565b80601f01602080910402602001604051908101604052809291908181526020018280546116c29061511e565b801561170f5780601f106116e45761010080835404028352916020019161170f565b820191906000526020600020905b8154815290600101906020018083116116f257829003601f168201915b505050505081526020016001820180546117289061511e565b80601f01602080910402602001604051908101604052809291908181526020018280546117549061511e565b80156117a15780601f10611776576101008083540402835291602001916117a1565b820191906000526020600020905b81548152906001019060200180831161178457829003601f168201915b505050505081526020016002820160009054906101000a900460ff1615151515815260200160038201805480602002602001604051908101604052809291908181526020016000905b828210156118965783829060005260206000200180546118099061511e565b80601f01602080910402602001604051908101604052809291908181526020018280546118359061511e565b80156118825780601f1061185757610100808354040283529160200191611882565b820191906000526020600020905b81548152906001019060200180831161186557829003601f168201915b5050505050815260200190600101906117ea565b5050505081525050905080604001516118e4576040517f08c379a00000000000000000000000000000000000000000000000000000000081526004016118db906152bf565b60405180910390fd5b806000015181602001519250925050915091565b6060600060048360405161190c9190615020565b90815260200160405180910390209050600115158160050160009054906101000a900460ff16151514611974576040517f08c379a000000000000000000000000000000000000000000000000000000000815260040161196b9061532b565b60405180910390fd5b80600401805480602002602001604051908101604052809291908181526020016000905b82821015611a445783829060005260206000200180546119b79061511e565b80601f01602080910402602001604051908101604052809291908181526020018280546119e39061511e565b8015611a305780601f10611a0557610100808354040283529160200191611a30565b820191906000526020600020905b815481529060010190602001808311611a1357829003601f168201915b505050505081526020019060010190611998565b50505050915050919050565b60008060009054906101000a900473ffffffffffffffffffffffffffffffffffffffff1673ffffffffffffffffffffffffffffffffffffffff163373ffffffffffffffffffffffffffffffffffffffff1614611ae1576040517f08c379a0000000000000000000000000000000000000000000000000000000008152600401611ad890614fc4565b60405180910390fd5b6000600284604051611af39190615020565b908152602001604051809103902090506000600484604051611b159190615020565b908152602001604051809103902090506000826001018054611b369061511e565b905003611b4657611b4561534b565b5b60006004811115611b5a57611b59614518565b5b8260000160009054906101000a900460ff166004811115611b7e57611b7d614518565b5b14611bbe576040517f08c379a0000000000000000000000000000000000000000000000000000000008152600401611bb5906153c6565b60405180910390fd5b600115158160050160009054906101000a900460ff16151514611c16576040517f08c379a0000000000000000000000000000000000000000000000000000000008152600401611c0d90615432565b60405180910390fd5b83826008019080519060200190611c2e929190614066565b5060018260000160006101000a81548160ff02191690836004811115611c5757611c56614518565b5b02179055507f293d5c7b046bd412686165f143a9ff5bfd9746afcfb4048bb31c75156bd6fef78585604051611c8d929190614ac1565b60405180910390a160019250505092915050565b60008054906101000a900473ffffffffffffffffffffffffffffffffffffffff1681565b600080600285604051611cd89190615020565b908152602001604051809103902090506000600385604051611cfa9190615020565b908152602001604051809103902090506000826001018054611d1b9061511e565b905003611d2757600080fd5b60016004811115611d3b57611d3a614518565b5b8260000160009054906101000a900460ff166004811115611d5f57611d5e614518565b5b14611d9f576040517f08c379a0000000000000000000000000000000000000000000000000000000008152600401611d96906154c4565b60405180910390fd5b600115158160020160009054906101000a900460ff16151514611df7576040517f08c379a0000000000000000000000000000000000000000000000000000000008152600401611dee90615530565b60405180910390fd5b8060030186908060018154018082558091505060019003906000526020600020016000909190919091509080519060200190611e34929190614066565b5084826009016000019080519060200190611e50929190614066565b5083826009016001019080519060200190611e6c929190614066565b5060028260000160006101000a81548160ff02191690836004811115611e9557611e94614518565b5b02179055507f9206f9e285ab7f82f6559bf30409d9d091619d30078dc415ebe4f639391f87488686604051611ecb929190614ac1565b60405180910390a16001925050509392505050565b60008060009054906101000a900473ffffffffffffffffffffffffffffffffffffffff1673ffffffffffffffffffffffffffffffffffffffff163373ffffffffffffffffffffffffffffffffffffffff1614611f71576040517f08c379a0000000000000000000000000000000000000000000000000000000008152600401611f6890614fc4565b60405180910390fd5b600484604051611f819190615020565b908152602001604051809103902060050160009054906101000a900460ff1615611fae57600090506120ed565b611fb66141be565b83816020018190525082816060018190525060018160a001901515908115158152505080600486604051611fea9190615020565b90815260200160405180910390206000820151816000019080519060200190612014929190614066565b506020820151816001019080519060200190612031929190614066565b50604082015181600201908051906020019061204e929190614066565b50606082015181600301908051906020019061206b929190614066565b5060808201518160040190805190602001906120889291906140ec565b5060a08201518160050160006101000a81548160ff0219169083151502179055509050507fbff6228f9dc649286e18fc58a6080fe6fb2190d7401f5da0c1a99d80f7b0a9ed8585856040516120df939291906150a3565b60405180910390a160019150505b9392505050565b6000806002856040516121079190615020565b9081526020016040518091039020905060006004856040516121299190615020565b90815260200160405180910390209050600082600101805461214a9061511e565b90500361218c576040517f08c379a00000000000000000000000000000000000000000000000000000000081526004016121839061559c565b60405180910390fd5b600360048111156121a05761219f614518565b5b8260000160009054906101000a900460ff1660048111156121c4576121c3614518565b5b14612204576040517f08c379a00000000000000000000000000000000000000000000000000000000081526004016121fb90615608565b60405180910390fd5b600115158160050160009054906101000a900460ff1615151461225c576040517f08c379a000000000000000000000000000000000000000000000000000000000815260040161225390615530565b60405180910390fd5b60008260090160000180546122709061511e565b9050036122b2576040517f08c379a00000000000000000000000000000000000000000000000000000000081526004016122a990615674565b60405180910390fd5b60048260000160006101000a81548160ff021916908360048111156122da576122d9614518565b5b0217905550838260090160020190805190602001906122fa929190614066565b508060040186908060018154018082558091505060019003906000526020600020016000909190919091509080519060200190612338929190614066565b507fe8b1c27280635cf29b3f8c574bae6f80498a93f78ef1b0822e075c807d418279868660405161236a929190614ac1565b60405180910390a16001925050509392505050565b6060600060018054905067ffffffffffffffff8111156123a2576123a16142c7565b5b6040519080825280602002602001820160405280156123db57816020015b6123c861414c565b8152602001906001900390816123c05790505b50905060005b600180549050811015612bd45760026001828154811061240457612403615694565b5b9060005260206000200160405161241b9190615757565b9081526020016040518091039020604051806101600160405290816000820160009054906101000a900460ff16600481111561245a57612459614518565b5b600481111561246c5761246b614518565b5b81526020016001820180546124809061511e565b80601f01602080910402602001604051908101604052809291908181526020018280546124ac9061511e565b80156124f95780601f106124ce576101008083540402835291602001916124f9565b820191906000526020600020905b8154815290600101906020018083116124dc57829003601f168201915b505050505081526020016002820180546125129061511e565b80601f016020809104026020016040519081016040528092919081815260200182805461253e9061511e565b801561258b5780601f106125605761010080835404028352916020019161258b565b820191906000526020600020905b81548152906001019060200180831161256e57829003601f168201915b505050505081526020016003820180546125a49061511e565b80601f01602080910402602001604051908101604052809291908181526020018280546125d09061511e565b801561261d5780601f106125f25761010080835404028352916020019161261d565b820191906000526020600020905b81548152906001019060200180831161260057829003601f168201915b505050505081526020016004820180546126369061511e565b80601f01602080910402602001604051908101604052809291908181526020018280546126629061511e565b80156126af5780601f10612684576101008083540402835291602001916126af565b820191906000526020600020905b81548152906001019060200180831161269257829003601f168201915b505050505081526020016005820180546126c89061511e565b80601f01602080910402602001604051908101604052809291908181526020018280546126f49061511e565b80156127415780601f1061271657610100808354040283529160200191612741565b820191906000526020600020905b81548152906001019060200180831161272457829003601f168201915b5050505050815260200160068201805461275a9061511e565b80601f01602080910402602001604051908101604052809291908181526020018280546127869061511e565b80156127d35780601f106127a8576101008083540402835291602001916127d3565b820191906000526020600020905b8154815290600101906020018083116127b657829003601f168201915b505050505081526020016007820180546127ec9061511e565b80601f01602080910402602001604051908101604052809291908181526020018280546128189061511e565b80156128655780601f1061283a57610100808354040283529160200191612865565b820191906000526020600020905b81548152906001019060200180831161284857829003601f168201915b5050505050815260200160088201805461287e9061511e565b80601f01602080910402602001604051908101604052809291908181526020018280546128aa9061511e565b80156128f75780601f106128cc576101008083540402835291602001916128f7565b820191906000526020600020905b8154815290600101906020018083116128da57829003601f168201915b50505050508152602001600982016040518060600160405290816000820180546129209061511e565b80601f016020809104026020016040519081016040528092919081815260200182805461294c9061511e565b80156129995780601f1061296e57610100808354040283529160200191612999565b820191906000526020600020905b81548152906001019060200180831161297c57829003601f168201915b505050505081526020016001820180546129b29061511e565b80601f01602080910402602001604051908101604052809291908181526020018280546129de9061511e565b8015612a2b5780601f10612a0057610100808354040283529160200191612a2b565b820191906000526020600020905b815481529060010190602001808311612a0e57829003601f168201915b50505050508152602001600282018054612a449061511e565b80601f0160208091040260200160405190810160405280929190818152602001828054612a709061511e565b8015612abd5780601f10612a9257610100808354040283529160200191612abd565b820191906000526020600020905b815481529060010190602001808311612aa057829003601f168201915b5050505050815250508152602001600c8201805480602002602001604051908101604052809291908181526020016000905b82821015612b9b578382906000526020600020018054612b0e9061511e565b80601f0160208091040260200160405190810160405280929190818152602001828054612b3a9061511e565b8015612b875780601f10612b5c57610100808354040283529160200191612b87565b820191906000526020600020905b815481529060010190602001808311612b6a57829003601f168201915b505050505081526020019060010190612aef565b5050505081525050828281518110612bb657612bb5615694565b5b60200260200101819052508080612bcc9061579d565b9150506123e1565b508091505090565b6060806000600284604051612bf19190615020565b9081526020016040518091039020604051806101600160405290816000820160009054906101000a900460ff166004811115612c3057612c2f614518565b5b6004811115612c4257612c41614518565b5b8152602001600182018054612c569061511e565b80601f0160208091040260200160405190810160405280929190818152602001828054612c829061511e565b8015612ccf5780601f10612ca457610100808354040283529160200191612ccf565b820191906000526020600020905b815481529060010190602001808311612cb257829003601f168201915b50505050508152602001600282018054612ce89061511e565b80601f0160208091040260200160405190810160405280929190818152602001828054612d149061511e565b8015612d615780601f10612d3657610100808354040283529160200191612d61565b820191906000526020600020905b815481529060010190602001808311612d4457829003601f168201915b50505050508152602001600382018054612d7a9061511e565b80601f0160208091040260200160405190810160405280929190818152602001828054612da69061511e565b8015612df35780601f10612dc857610100808354040283529160200191612df3565b820191906000526020600020905b815481529060010190602001808311612dd657829003601f168201915b50505050508152602001600482018054612e0c9061511e565b80601f0160208091040260200160405190810160405280929190818152602001828054612e389061511e565b8015612e855780601f10612e5a57610100808354040283529160200191612e85565b820191906000526020600020905b815481529060010190602001808311612e6857829003601f168201915b50505050508152602001600582018054612e9e9061511e565b80601f0160208091040260200160405190810160405280929190818152602001828054612eca9061511e565b8015612f175780601f10612eec57610100808354040283529160200191612f17565b820191906000526020600020905b815481529060010190602001808311612efa57829003601f168201915b50505050508152602001600682018054612f309061511e565b80601f0160208091040260200160405190810160405280929190818152602001828054612f5c9061511e565b8015612fa95780601f10612f7e57610100808354040283529160200191612fa9565b820191906000526020600020905b815481529060010190602001808311612f8c57829003601f168201915b50505050508152602001600782018054612fc29061511e565b80601f0160208091040260200160405190810160405280929190818152602001828054612fee9061511e565b801561303b5780601f106130105761010080835404028352916020019161303b565b820191906000526020600020905b81548152906001019060200180831161301e57829003601f168201915b505050505081526020016008820180546130549061511e565b80601f01602080910402602001604051908101604052809291908181526020018280546130809061511e565b80156130cd5780601f106130a2576101008083540402835291602001916130cd565b820191906000526020600020905b8154815290600101906020018083116130b057829003601f168201915b50505050508152602001600982016040518060600160405290816000820180546130f69061511e565b80601f01602080910402602001604051908101604052809291908181526020018280546131229061511e565b801561316f5780601f106131445761010080835404028352916020019161316f565b820191906000526020600020905b81548152906001019060200180831161315257829003601f168201915b505050505081526020016001820180546131889061511e565b80601f01602080910402602001604051908101604052809291908181526020018280546131b49061511e565b80156132015780601f106131d657610100808354040283529160200191613201565b820191906000526020600020905b8154815290600101906020018083116131e457829003601f168201915b5050505050815260200160028201805461321a9061511e565b80601f01602080910402602001604051908101604052809291908181526020018280546132469061511e565b80156132935780601f1061326857610100808354040283529160200191613293565b820191906000526020600020905b81548152906001019060200180831161327657829003601f168201915b5050505050815250508152602001600c8201805480602002602001604051908101604052809291908181526020016000905b828210156133715783829060005260206000200180546132e49061511e565b80601f01602080910402602001604051908101604052809291908181526020018280546133109061511e565b801561335d5780601f106133325761010080835404028352916020019161335d565b820191906000526020600020905b81548152906001019060200180831161334057829003601f168201915b5050505050815260200190600101906132c5565b50505050815250509050600081610100015151036133c4576040517f08c379a00000000000000000000000000000000000000000000000000000000081526004016133bb90615831565b60405180910390fd5b600060048261010001516040516133db9190615020565b90815260200160405180910390206040518060c00160405290816000820180546134049061511e565b80601f01602080910402602001604051908101604052809291908181526020018280546134309061511e565b801561347d5780601f106134525761010080835404028352916020019161347d565b820191906000526020600020905b81548152906001019060200180831161346057829003601f168201915b505050505081526020016001820180546134969061511e565b80601f01602080910402602001604051908101604052809291908181526020018280546134c29061511e565b801561350f5780601f106134e45761010080835404028352916020019161350f565b820191906000526020600020905b8154815290600101906020018083116134f257829003601f168201915b505050505081526020016002820180546135289061511e565b80601f01602080910402602001604051908101604052809291908181526020018280546135549061511e565b80156135a15780601f10613576576101008083540402835291602001916135a1565b820191906000526020600020905b81548152906001019060200180831161358457829003601f168201915b505050505081526020016003820180546135ba9061511e565b80601f01602080910402602001604051908101604052809291908181526020018280546135e69061511e565b80156136335780601f1061360857610100808354040283529160200191613633565b820191906000526020600020905b81548152906001019060200180831161361657829003601f168201915b5050505050815260200160048201805480602002602001604051908101604052809291908181526020016000905b8282101561370d5783829060005260206000200180546136809061511e565b80601f01602080910402602001604051908101604052809291908181526020018280546136ac9061511e565b80156136f95780601f106136ce576101008083540402835291602001916136f9565b820191906000526020600020905b8154815290600101906020018083116136dc57829003601f168201915b505050505081526020019060010190613661565b5050505081526020016005820160009054906101000a900460ff161515151581525050905080602001518160600151935093505050915091565b606080600060048460405161375c9190615020565b90815260200160405180910390206040518060c00160405290816000820180546137859061511e565b80601f01602080910402602001604051908101604052809291908181526020018280546137b19061511e565b80156137fe5780601f106137d3576101008083540402835291602001916137fe565b820191906000526020600020905b8154815290600101906020018083116137e157829003601f168201915b505050505081526020016001820180546138179061511e565b80601f01602080910402602001604051908101604052809291908181526020018280546138439061511e565b80156138905780601f1061386557610100808354040283529160200191613890565b820191906000526020600020905b81548152906001019060200180831161387357829003601f168201915b505050505081526020016002820180546138a99061511e565b80601f01602080910402602001604051908101604052809291908181526020018280546138d59061511e565b80156139225780601f106138f757610100808354040283529160200191613922565b820191906000526020600020905b81548152906001019060200180831161390557829003601f168201915b5050505050815260200160038201805461393b9061511e565b80601f01602080910402602001604051908101604052809291908181526020018280546139679061511e565b80156139b45780601f10613989576101008083540402835291602001916139b4565b820191906000526020600020905b81548152906001019060200180831161399757829003601f168201915b5050505050815260200160048201805480602002602001604051908101604052809291908181526020016000905b82821015613a8e578382906000526020600020018054613a019061511e565b80601f0160208091040260200160405190810160405280929190818152602001828054613a2d9061511e565b8015613a7a5780601f10613a4f57610100808354040283529160200191613a7a565b820191906000526020600020905b815481529060010190602001808311613a5d57829003601f168201915b5050505050815260200190600101906139e2565b5050505081526020016005820160009054906101000a900460ff16151515158152505090508060a00151613af7576040517f08c379a0000000000000000000000000000000000000000000000000000000008152600401613aee9061589d565b60405180910390fd5b806020015181606001519250925050915091565b600080600284604051613b1e9190615020565b908152602001604051809103902090506000600384604051613b409190615020565b908152602001604051809103902090506000826001018054613b619061511e565b905003613ba3576040517f08c379a0000000000000000000000000000000000000000000000000000000008152600401613b9a9061519b565b60405180910390fd5b60026004811115613bb757613bb6614518565b5b8260000160009054906101000a900460ff166004811115613bdb57613bda614518565b5b14613c1b576040517f08c379a0000000000000000000000000000000000000000000000000000000008152600401613c1290615608565b60405180910390fd5b600115158160020160009054906101000a900460ff16151514613c73576040517f08c379a0000000000000000000000000000000000000000000000000000000008152600401613c6a90615530565b60405180910390fd5b60038260000160006101000a81548160ff02191690836004811115613c9b57613c9a614518565b5b02179055507f2c134c30985f8ffa7a2ef25a19d880c8b5f3c1fe21627e26f974f0e0cafa1f368585604051613cd1929190614ac1565b60405180910390a160019250505092915050565b60008060009054906101000a900473ffffffffffffffffffffffffffffffffffffffff1673ffffffffffffffffffffffffffffffffffffffff163373ffffffffffffffffffffffffffffffffffffffff1614613d76576040517f08c379a0000000000000000000000000000000000000000000000000000000008152600401613d6d90614fc4565b60405180910390fd5b613d7e61414c565b878160200181905250868160600181905250600081600001906004811115613da957613da8614518565b5b90816004811115613dbd57613dbc614518565b5b81525050888160400181905250858160800181905250848160a00181905250838160c00181905250828160e001819052508060028a604051613dff9190615020565b908152602001604051809103902060008201518160000160006101000a81548160ff02191690836004811115613e3857613e37614518565b5b02179055506020820151816001019080519060200190613e59929190614066565b506040820151816002019080519060200190613e76929190614066565b506060820151816003019080519060200190613e93929190614066565b506080820151816004019080519060200190613eb0929190614066565b5060a0820151816005019080519060200190613ecd929190614066565b5060c0820151816006019080519060200190613eea929190614066565b5060e0820151816007019080519060200190613f07929190614066565b50610100820151816008019080519060200190613f25929190614066565b50610120820151816009016000820151816000019080519060200190613f4c929190614066565b506020820151816001019080519060200190613f69929190614066565b506040820151816002019080519060200190613f86929190614066565b50505061014082015181600c019080519060200190613fa69291906140ec565b50905050600189908060018154018082558091505060019003906000526020600020016000909190919091509080519060200190613fe5929190614066565b507ff9d22cbedbc654b44bd24164decad55150b3f3c04a14c1d45d5cdb1a1e12220289898960008a8a8a8a6040516140249897969594939291906158bd565b60405180910390a16001915050979650505050505050565b60405180608001604052806060815260200160608152602001600015158152602001606081525090565b8280546140729061511e565b90600052602060002090601f01602090048101928261409457600085556140db565b82601f106140ad57805160ff19168380011785556140db565b828001600101855582156140db579182015b828111156140da5782518255916020019190600101906140bf565b5b5090506140e891906141f6565b5090565b82805482825590600052602060002090810192821561413b579160200282015b8281111561413a57825182908051906020019061412a929190614066565b509160200191906001019061410c565b5b5090506141489190614213565b5090565b6040518061016001604052806000600481111561416c5761416b614518565b5b815260200160608152602001606081526020016060815260200160608152602001606081526020016060815260200160608152602001606081526020016141b1614237565b8152602001606081525090565b6040518060c0016040528060608152602001606081526020016060815260200160608152602001606081526020016000151581525090565b5b8082111561420f5760008160009055506001016141f7565b5090565b5b80821115614233576000818161422a9190614258565b50600101614214565b5090565b60405180606001604052806060815260200160608152602001606081525090565b5080546142649061511e565b6000825580601f106142765750614295565b601f01602090049060005260206000209081019061429491906141f6565b5b50565b6000604051905090565b600080fd5b600080fd5b600080fd5b600080fd5b6000601f19601f8301169050919050565b7f4e487b7100000000000000000000000000000000000000000000000000000000600052604160045260246000fd5b6142ff826142b6565b810181811067ffffffffffffffff8211171561431e5761431d6142c7565b5b80604052505050565b6000614331614298565b905061433d82826142f6565b919050565b600067ffffffffffffffff82111561435d5761435c6142c7565b5b614366826142b6565b9050602081019050919050565b82818337600083830152505050565b600061439561439084614342565b614327565b9050828152602081018484840111156143b1576143b06142b1565b5b6143bc848285614373565b509392505050565b600082601f8301126143d9576143d86142ac565b5b81356143e9848260208601614382565b91505092915050565b60008060006060848603121561440b5761440a6142a2565b5b600084013567ffffffffffffffff811115614429576144286142a7565b5b614435868287016143c4565b935050602084013567ffffffffffffffff811115614456576144556142a7565b5b614462868287016143c4565b925050604084013567ffffffffffffffff811115614483576144826142a7565b5b61448f868287016143c4565b9150509250925092565b60008115159050919050565b6144ae81614499565b82525050565b60006020820190506144c960008301846144a5565b92915050565b6000602082840312156144e5576144e46142a2565b5b600082013567ffffffffffffffff811115614503576145026142a7565b5b61450f848285016143c4565b91505092915050565b7f4e487b7100000000000000000000000000000000000000000000000000000000600052602160045260246000fd5b6005811061455857614557614518565b5b50565b600081905061456982614547565b919050565b60006145798261455b565b9050919050565b6145898161456e565b82525050565b600081519050919050565b600082825260208201905092915050565b60005b838110156145c95780820151818401526020810190506145ae565b838111156145d8576000848401525b50505050565b60006145e98261458f565b6145f3818561459a565b93506146038185602086016145ab565b61460c816142b6565b840191505092915050565b600082825260208201905092915050565b60006146338261458f565b61463d8185614617565b935061464d8185602086016145ab565b614656816142b6565b840191505092915050565b6000606083016000830151848203600086015261467e8282614628565b915050602083015184820360208601526146988282614628565b915050604083015184820360408601526146b28282614628565b9150508091505092915050565b6000610140820190506146d5600083018d614580565b81810360208301526146e7818c6145de565b905081810360408301526146fb818b6145de565b9050818103606083015261470f818a6145de565b9050818103608083015261472381896145de565b905081810360a083015261473781886145de565b905081810360c083015261474b81876145de565b905081810360e083015261475f81866145de565b905081810361010083015261477481856145de565b90508181036101208301526147898184614661565b90509b9a5050505050505050505050565b6147a38161456e565b82525050565b600060608301600083015184820360008601526147c68282614628565b915050602083015184820360208601526147e08282614628565b915050604083015184820360408601526147fa8282614628565b9150508091505092915050565b600081519050919050565b600082825260208201905092915050565b6000819050602082019050919050565b600061483f8383614628565b905092915050565b6000602082019050919050565b600061485f82614807565b6148698185614812565b93508360208202850161487b85614823565b8060005b858110156148b757848403895281516148988582614833565b94506148a383614847565b925060208a0199505060018101905061487f565b50829750879550505050505092915050565b6000610160830160008301516148e2600086018261479a565b50602083015184820360208601526148fa8282614628565b915050604083015184820360408601526149148282614628565b9150506060830151848203606086015261492e8282614628565b915050608083015184820360808601526149488282614628565b91505060a083015184820360a08601526149628282614628565b91505060c083015184820360c086015261497c8282614628565b91505060e083015184820360e08601526149968282614628565b9150506101008301518482036101008601526149b28282614628565b9150506101208301518482036101208601526149ce82826147a9565b9150506101408301518482036101408601526149ea8282614854565b9150508091505092915050565b60006020820190508181036000830152614a1181846148c9565b905092915050565b600082825260208201905092915050565b6000614a3582614807565b614a3f8185614a19565b935083602082028501614a5185614823565b8060005b85811015614a8d5784840389528151614a6e8582614833565b9450614a7983614847565b925060208a01995050600181019050614a55565b50829750879550505050505092915050565b60006020820190508181036000830152614ab98184614a2a565b905092915050565b60006040820190508181036000830152614adb81856145de565b90508181036020830152614aef81846145de565b90509392505050565b60008060408385031215614b0f57614b0e6142a2565b5b600083013567ffffffffffffffff811115614b2d57614b2c6142a7565b5b614b39858286016143c4565b925050602083013567ffffffffffffffff811115614b5a57614b596142a7565b5b614b66858286016143c4565b9150509250929050565b6000819050919050565b614b8381614b70565b82525050565b6000602082019050614b9e6000830184614b7a565b92915050565b600073ffffffffffffffffffffffffffffffffffffffff82169050919050565b6000614bcf82614ba4565b9050919050565b614bdf81614bc4565b82525050565b6000602082019050614bfa6000830184614bd6565b92915050565b600081519050919050565b600082825260208201905092915050565b6000819050602082019050919050565b600061016083016000830151614c45600086018261479a565b5060208301518482036020860152614c5d8282614628565b91505060408301518482036040860152614c778282614628565b91505060608301518482036060860152614c918282614628565b91505060808301518482036080860152614cab8282614628565b91505060a083015184820360a0860152614cc58282614628565b91505060c083015184820360c0860152614cdf8282614628565b91505060e083015184820360e0860152614cf98282614628565b915050610100830151848203610100860152614d158282614628565b915050610120830151848203610120860152614d3182826147a9565b915050610140830151848203610140860152614d4d8282614854565b9150508091505092915050565b6000614d668383614c2c565b905092915050565b6000602082019050919050565b6000614d8682614c00565b614d908185614c0b565b935083602082028501614da285614c1c565b8060005b85811015614dde5784840389528151614dbf8582614d5a565b9450614dca83614d6e565b925060208a01995050600181019050614da6565b50829750879550505050505092915050565b60006020820190508181036000830152614e0a8184614d7b565b905092915050565b600080600080600080600060e0888a031215614e3157614e306142a2565b5b600088013567ffffffffffffffff811115614e4f57614e4e6142a7565b5b614e5b8a828b016143c4565b975050602088013567ffffffffffffffff811115614e7c57614e7b6142a7565b5b614e888a828b016143c4565b965050604088013567ffffffffffffffff811115614ea957614ea86142a7565b5b614eb58a828b016143c4565b955050606088013567ffffffffffffffff811115614ed657614ed56142a7565b5b614ee28a828b016143c4565b945050608088013567ffffffffffffffff811115614f0357614f026142a7565b5b614f0f8a828b016143c4565b93505060a088013567ffffffffffffffff811115614f3057614f2f6142a7565b5b614f3c8a828b016143c4565b92505060c088013567ffffffffffffffff811115614f5d57614f5c6142a7565b5b614f698a828b016143c4565b91505092959891949750929550565b7f4e6f7420617574686f72697a6564000000000000000000000000000000000000600082015250565b6000614fae600e8361459a565b9150614fb982614f78565b602082019050919050565b60006020820190508181036000830152614fdd81614fa1565b9050919050565b600081905092915050565b6000614ffa8261458f565b6150048185614fe4565b93506150148185602086016145ab565b80840191505092915050565b600061502c8284614fef565b915081905092915050565b7f52657461696c657220616c726561647920657869737473000000000000000000600082015250565b600061506d60178361459a565b915061507882615037565b602082019050919050565b6000602082019050818103600083015261509c81615060565b9050919050565b600060608201905081810360008301526150bd81866145de565b905081810360208301526150d181856145de565b905081810360408301526150e581846145de565b9050949350505050565b7f4e487b7100000000000000000000000000000000000000000000000000000000600052602260045260246000fd5b6000600282049050600182168061513657607f821691505b602082108103615149576151486150ef565b5b50919050565b7f50726f6475637420646f6573206e6f7420657869737400000000000000000000600082015250565b600061518560168361459a565b91506151908261514f565b602082019050919050565b600060208201905081810360008301526151b481615178565b9050919050565b7f4c6f6769737469632050726f766964657220646f6573206e6f7420657869737460008201527f7300000000000000000000000000000000000000000000000000000000000000602082015250565b600061521760218361459a565b9150615222826151bb565b604082019050919050565b600060208201905081810360008301526152468161520a565b9050919050565b7f4c6f6769737469632070726f766964657220646f6573206e6f7420657869737460008201527f7300000000000000000000000000000000000000000000000000000000000000602082015250565b60006152a960218361459a565b91506152b48261524d565b604082019050919050565b600060208201905081810360008301526152d88161529c565b9050919050565b7f52657461696c657220646f6573206e6f74206578697374730000000000000000600082015250565b600061531560188361459a565b9150615320826152df565b602082019050919050565b6000602082019050818103600083015261534481615308565b9050919050565b7f4e487b7100000000000000000000000000000000000000000000000000000000600052600160045260246000fd5b7f43616e206e6f742073656c6c2070726f64756374000000000000000000000000600082015250565b60006153b060148361459a565b91506153bb8261537a565b602082019050919050565b600060208201905081810360008301526153df816153a3565b9050919050565b7f52657461696c657220646f6573206e6f74206578697374000000000000000000600082015250565b600061541c60178361459a565b9150615427826153e6565b602082019050919050565b6000602082019050818103600083015261544b8161540f565b9050919050565b7f50726f64756374206861732063616e206e6f74206265207069636b207570206660008201527f6f722064656c6976657279000000000000000000000000000000000000000000602082015250565b60006154ae602b8361459a565b91506154b982615452565b604082019050919050565b600060208201905081810360008301526154dd816154a1565b9050919050565b7f4c6f6769737469632070726f766964657220646f6573206e6f74206578697374600082015250565b600061551a60208361459a565b9150615525826154e4565b602082019050919050565b600060208201905081810360008301526155498161550d565b9050919050565b7f5f72657461696c657220646f6573206e6f742065786973740000000000000000600082015250565b600061558660188361459a565b915061559182615550565b602082019050919050565b600060208201905081810360008301526155b581615579565b9050919050565b7f50726f64756374206e6565647320746f20626520696e207472616e7369740000600082015250565b60006155f2601e8361459a565b91506155fd826155bc565b602082019050919050565b60006020820190508181036000830152615621816155e5565b9050919050565b7f44656c697665727920696e666f726d6174696f6e206973206d697373696e6700600082015250565b600061565e601f8361459a565b915061566982615628565b602082019050919050565b6000602082019050818103600083015261568d81615651565b9050919050565b7f4e487b7100000000000000000000000000000000000000000000000000000000600052603260045260246000fd5b60008190508160005260206000209050919050565b600081546156e58161511e565b6156ef8186614fe4565b9450600182166000811461570a576001811461571b5761574e565b60ff1983168652818601935061574e565b615724856156c3565b60005b8381101561574657815481890152600182019150602081019050615727565b838801955050505b50505092915050565b600061576382846156d8565b915081905092915050565b7f4e487b7100000000000000000000000000000000000000000000000000000000600052601160045260246000fd5b60006157a882614b70565b91507fffffffffffffffffffffffffffffffffffffffffffffffffffffffffffffffff82036157da576157d961576e565b5b600182019050919050565b7f50726f6475637420646f6573206e6f7420686176652072657461696c65720000600082015250565b600061581b601e8361459a565b9150615826826157e5565b602082019050919050565b6000602082019050818103600083015261584a8161580e565b9050919050565b7f52657461696c657220646f6573206e6f74206578736974730000000000000000600082015250565b600061588760188361459a565b915061589282615851565b602082019050919050565b600060208201905081810360008301526158b68161587a565b9050919050565b60006101008201905081810360008301526158d8818b6145de565b905081810360208301526158ec818a6145de565b9050818103604083015261590081896145de565b905061590f6060830188614580565b818103608083015261592181876145de565b905081810360a083015261593581866145de565b905081810360c083015261594981856145de565b905081810360e083015261595d81846145de565b9050999850505050505050505056fea264697066735822122027cbb2ace90f1dde40d53947bada2cff40a53a8e62ea81e6e1c4ebe5344bc36064736f6c634300080d0033",
  "immutableReferences": {},
  "source": "// SPDX-License-Identifier: MIT\npragma solidity ^0.8.13;\n\ncontract Authentifi {\n    address public owner;\n\n    // Arrays to store keys\n    string[] private productCodes;\n\n    // Enum to represent product states\n    enum Status {\n        Manufactured, // 0\n        Sold,    // 1\n        InTransit,    // 2\n        MarkedAsDelivered,    // 3\n        Delivered     // 4\n    }\n\n    struct DeliveryInfo {\n        string logistic;\n        string pickedOn;\n        string deliveredOn;\n    }\n\n    struct Product {\n        Status status;\n        string brand;\n        string itemCode;\n        string model;\n        string description;\n        string manufacturerName;\n        string manufacturerLocation;\n        string manufacturerTimestamp;\n        string retailer;\n        DeliveryInfo deliveryInfo;\n        string[] customers;\n    }\n\n    struct Retailer {\n        string email;\n        string name;\n        string phone;\n        string location;\n        string[] productCodes;\n        bool isValue;\n    }\n\n    struct Logistic {\n        string name;\n        string location;\n        bool isValue;\n        string[] productCodes;\n    }\n\n    mapping (string => Product) public productArray;\n    mapping (string => Logistic) private logisticArray;\n    mapping (string => Retailer) private retailerArray;\n\n    // Define events\n    event ProductCreated(string code, string brand, string model, Status status, string description, string manufacturerName, string manufacturerLocation, string manufacturerTimestamp);\n    event ProductSold(string code, string retailer);\n    event ProductPickedForDelivery(string code, string retailer);\n    event LogisticCreated(string hashedEmail, string name, string phone);\n    event RetailerCreated(string hashedEmail, string retailerName, string retailerLocation);\n    event ProductDelivered(string code, string logistic);\n    event ProductDeliveryConfirmed(string code, string retailer);\n\n\n    constructor() {\n        owner = msg.sender;\n        assert(owner != address(0)); // Ensure owner is correctly set\n    }\n\n    modifier onlyOwner() {\n        require(msg.sender == owner, \"Not authorized\");\n        _;\n    }\n\n    function listCodes() public view returns (Product[] memory) {\n        Product[] memory allProducts = new Product[](productCodes.length);\n        for (uint i = 0; i < productCodes.length; i++) {\n            allProducts[i] = productArray[productCodes[i]];\n        }\n        return allProducts;\n    }\n\n    // Function to create a new code for the product\n    function createProduct(\n        string memory _code,\n        string memory _brand,\n        string memory _model,\n        string memory _description,\n        string memory _manufacturerName,\n        string memory _manufacturerLocation,\n        string memory _manufacturerTimestamp\n    ) public onlyOwner returns (uint) {\n        Product memory newProduct;\n        newProduct.brand = _brand;\n        newProduct.model = _model;\n        newProduct.status = Status.Manufactured;\n        newProduct.itemCode = _code;\n        newProduct.description = _description;\n        newProduct.manufacturerName = _manufacturerName;\n        newProduct.manufacturerLocation = _manufacturerLocation;\n        newProduct.manufacturerTimestamp = _manufacturerTimestamp;\n        productArray[_code] = newProduct;\n        productCodes.push(_code);\n        emit ProductCreated(_code, _brand, _model, Status.Manufactured, _description, _manufacturerName, _manufacturerLocation, _manufacturerTimestamp);\n        return 1;\n    }\n\n    // Function for showing product details if the person scanning the product is not the owner\n    function getProductDetails(string memory _code) public view returns (\n        Product memory\n    ) {\n        Product memory product = productArray[_code];\n        require(bytes(product.brand).length != 0,\"Product does not exist\"); // Ensure code exists\n        return product;\n    }\n\n    // Function for showing product details if the person scanning the product is the owner\n    function getProductRetailerDetails(string memory _code) public view returns (string memory, string memory) {\n        Product memory product = productArray[_code];\n        require(bytes(product.retailer).length != 0,\"Product does not have retailer\"); // Ensure code has a retailer\n        Retailer memory retailer = retailerArray[product.retailer];\n        return (retailer.name, retailer.location);\n    }\n\n    // Function for creating sell product\n    function sellProduct(string memory _code, string memory _hashedEmailRetailer) public onlyOwner returns (uint) {\n        Product storage product = productArray[_code];\n        Retailer storage retailer = retailerArray[_hashedEmailRetailer];\n        assert(bytes(product.brand).length != 0); // Ensure code exists\n        require(product.status == Status.Manufactured, \"Can not sell product\");\n        require(retailer.isValue == true, \"Retailer does not exist\");\n        product.retailer = _hashedEmailRetailer;\n        product.status = Status.Sold;\n        emit ProductSold(_code, _hashedEmailRetailer);\n        return 1;\n    }\n\n    // Function for creating a new customer\n    function createLogistic(\n        string memory _hashedEmail,\n        string memory _name,\n        string memory _location\n    ) public onlyOwner returns (bool) {\n        require(!logisticArray[_hashedEmail].isValue, \"Retailer already exists\");\n        Logistic memory logistic;\n        logistic.name = _name;\n        logistic.location = _location;\n        logistic.isValue = true;\n        logisticArray[_hashedEmail] = logistic;\n        emit LogisticCreated(_hashedEmail, _name, _location);\n        return true;\n    }\n\n    function getLogisticDetails(string memory _hashedEmail) public view returns (string memory, string memory) {\n        Logistic memory logistic = logisticArray[_hashedEmail];\n        require(logistic.isValue, \"Logistic provider does not exists\"); // Ensure customer exists\n        return (logistic.name, logistic.location);\n    }\n\n    function createRetailer(\n        string memory _hashedEmail,\n        string memory _retailerName,\n        string memory _retailerLocation\n    ) public onlyOwner returns (uint) {\n        if (retailerArray[_hashedEmail].isValue) {\n            return 0;\n        }\n        Retailer memory newRetailer;\n        newRetailer.name = _retailerName;\n        newRetailer.location = _retailerLocation;\n        newRetailer.isValue = true;\n        retailerArray[_hashedEmail] = newRetailer;\n        emit RetailerCreated(_hashedEmail, _retailerName, _retailerLocation);\n        return 1;\n    }\n\n    function getRetailerProductCodes(string memory _retailer) public view returns (string[] memory)  {\n        Retailer storage retailer = retailerArray[_retailer];\n        require(retailer.isValue==true,\"Retailer does not exists\"); // Ensure code exists\n        return retailer.productCodes;\n    }\n\n    function confirmProductDelivery(string memory _code, string memory _retailer, string memory _timestamp) public payable returns(bool) {\n        Product storage product = productArray[_code];\n        Retailer storage retailer = retailerArray[_retailer];\n        require(bytes(product.brand).length != 0, \"_retailer does not exist\"); // Ensure code exists\n        require(product.status == Status.MarkedAsDelivered,\"Product needs to be in transit\"); // Ensure code exists\n        require(retailer.isValue == true,\"Logistic provider does not exist\"); // Ensure logistic exists\n        require(bytes(product.deliveryInfo.logistic).length != 0,\"Delivery information is missing\"); // Ensure logistic exists\n        product.status = Status.Delivered;\n        product.deliveryInfo.deliveredOn = _timestamp;\n        retailer.productCodes.push(_code);\n        emit ProductDeliveryConfirmed(_code, _retailer);\n        return true;\n    }\n\n    function getRetailerDetails(string memory _hashedEmail) public view returns (string memory, string memory) {\n        Retailer memory retailer = retailerArray[_hashedEmail];\n        require(retailer.isValue,\"Retailer does not exsits\"); // Ensure retailer exists\n        return (retailer.name, retailer.location);\n    }\n\n\n    function pickProductForDelivery(string memory _code, string memory _logistic,string memory _pickedTimestamp) public payable returns(bool) {\n        Product storage product = productArray[_code];\n        Logistic storage logistic = logisticArray[_logistic];\n        require(bytes(product.brand).length != 0); // Ensure code exists\n        require(product.status == Status.Sold,\"Product has can not be pick up for delivery\"); // Ensure code exists\n        require(logistic.isValue == true,\"Logistic provider does not exist\"); // Ensure logistic exists\n            logistic.productCodes.push(_code); // Adding customer in code\n            product.deliveryInfo.logistic = _logistic;\n            product.deliveryInfo.pickedOn = _pickedTimestamp;\n            product.status = Status.InTransit;\n            emit ProductPickedForDelivery(_code, _logistic);\n            return true;\n    }\n\n    function getDeliveriesCode(string memory _logistic) public view returns (string[] memory)  {\n        Logistic storage logistic = logisticArray[_logistic];\n        require(logistic.isValue==true,\"Logistic Provider does not exists\"); // Ensure code exists\n        return logistic.productCodes;\n    }\n\n    function markProductAsDelivered(string memory _code, string memory _logistic) public payable returns(bool) {\n        Product storage product = productArray[_code];\n        Logistic storage logistic = logisticArray[_logistic];\n        require(bytes(product.brand).length != 0, \"Product does not exist\"); // Ensure code exists\n        require(product.status == Status.InTransit,\"Product needs to be in transit\"); // Ensure code exists\n        require(logistic.isValue == true,\"Logistic provider does not exist\"); // Ensure logistic exists\n        //require(compareStrings(product.deliveryInfo.logistic, _logistic),\"Logistic Provider can not deliver product\"); // Ensure logistic exists\n        product.status = Status.MarkedAsDelivered;\n        emit ProductDelivered(_code, _logistic);\n        return true;\n    }\n\n\n\n    // Cannot directly compare strings in Solidity\n    // This function hashes the 2 strings and then compares the 2 hashes\n    function compareStrings(string memory a, string memory b) internal pure returns (bool) {\n        return keccak256(abi.encodePacked(a)) == keccak256(abi.encodePacked(b));\n    }\n\n}\n",
  "sourcePath": "/Users/muktar/Documents/workspace/BC_ProductVerification/truffle/contracts/authentifi.sol",
  "compiler": {
    "name": "solc",
    "version": "0.8.13+commit.abaa5c0e.Emscripten.clang"
  },
  "schemaVersion": "3.4.16",
  "updatedAt": "2024-05-26T15:06:33.936Z",
  "networkType": "ethereum",
  "devdoc": {
    "kind": "dev",
    "methods": {},
    "version": 1
  },
  "userdoc": {
    "kind": "user",
    "methods": {},
    "version": 1
  }
}